:10000000F8FF002011040000ADA40000ADA4000022
:10001000ADA40000ADA40000ADA40000ADA400009C
:10002000ADA40000ADA40000ADA40000ADA400008C
:10003000ADA40000ADA40000ADA40000ADA400007C
:1000400031750000ADA40000ADA40000ADA4000017
:10005000ADA40000ADA40000ADA40000ADA400005C
:10006000ADA40000ADA40000ADA40000ADA400004C
:10007000ADA40000ADA40000ADA40000ADA400003C
:10008000ADA40000ADA40000ADA40000ADA400002C
:10009000ADA40000ADA40000ADA40000ADA400001C
:1000A000ADA40000ADA40000ADA40000ADA400000C
:1000B000ADA40000ADA40000ADA40000ADA40000FC
:1000C000ADA40000ADA40000ADA40000ADA40000EC
:1000D000ADA40000ADA40000ADA40000ADA40000DC
:1000E000ADA40000ADA40000ADA40000ADA40000CC
:1000F000ADA40000ADA40000ADA40000ADA40000BC
:10010000ADA40000ADA40000ADA40000ADA40000AB
:10011000ADA40000B3760000ADA40000ADA40000C3
:10012000ADA40000ADA40000ADA40000ADA400008B
:10013000ADA40000ADA40000ADA40000ADA400007B
:10014000ADA40000ADA40000ADA40000ADA400006B
:1001500067750000F17500006F760000ADA4000027
:10016000ADA40000ADA40000ADA40000ADA400004B
:10017000ADA40000ADA40000ADA40000ADA400003B
:10018000ADA40000ADA40000ADA40000ADA400002B
:10019000ADA4000047750000ADA40000ADA40000B0
:1001A000ADA4000005750000ADA40000ADA40000E2
:1001B000ADA40000ADA40000ADA40000ADA40000FB
:1001C000ADA40000ADA40000ADA40000ADA40000EB
:1001D000ADA40000ADA40000ADA40000ADA40000DB
:1001E000ADA40000ADA40000ADA40000ADA40000CB
:10040000FFFFFFFFFFFFFFFFFFFFFFFFFEFFFFFFFD
:1004100062B64FF000004FF000014FF000024FF0C5
:1004200000034FF000044FF000054FF000064FF0BE
:1004300000074FF000084FF000094FF0000A4FF09E
:10044000000B4FF0000C08F0A3FDFEE780B5002381
:1004500001220021022002F0CDFF00230122012110
:10046000022002F0C7FF002301220221022002F035
:10047000C1FF002301220321022002F0BBFF002361
:1004800001220421022002F0B5FF002301220521F0
:10049000022002F0AFFF002301220621022002F019
:1004A000A9FF002301220721022002F0A3FF00235D
:1004B00001220821022002F09DFF002301220921D0
:1004C000022002F097FF002301220A21022002F0FD
:1004D00091FF002301220B21022002F08BFF002359
:1004E00001220C21022002F085FF012300220421B9
:1004F000042002F07FFF012300220821042002F0E3
:1005000079FF012300220921042002F073FF012357
:1005100000220A21042002F06DFF012300220B219A
:10052000042002F067FF01BD80B5FFF78FFFDFF801
:100530003C07006850F48050DFF8301708606420F2
:1005400003F03BF8DFF82407006830F48050DFF850
:100550001C170860642003F030F8DFF8100700680B
:1005600050F48050DFF8041708604FF4FA7003F07D
:1005700024F8DFF8F806006850F40070DFF8EC1695
:10058000086000BF00BF00BF00BF00BF00BF00BFCA
:1005900000BFDFF8D806006830F40060DFF8CC1642
:1005A000086000BF00BF00BF00BF00BF00BF00BFAA
:1005B00000BFDFF8B806006830F48060DFF8AC16E2
:1005C000086000BF00BF00BF00BF00BF00BF00BF8A
:1005D00000BF1120DFF894160870DFF8900600685D
:1005E00030F48070DFF88416086000BF00BF00BFE1
:1005F00000BF00BF00BF00BF00BFDFF8700600688B
:1006000050F48070DFF86416086000BF00BF00BFC0
:1006100000BF00BF00BF00BF00BFDFF8500600688A
:1006200050F48060DFF844160860782002F0C5FFBF
:10063000DFF83806006850F40070DFF83016086004
:1006400000BF00BF00BF00BF00BF00BF00BF00BFB2
:10065000DFF81806006830F40060DFF81016086054
:1006600000BF00BF00BF00BF00BF00BF00BF00BF92
:10067000DFF8F805006830F48060DFF8F0150860F6
:1006800000BF00BF00BF00BF00BF00BF00BF00BF72
:10069000B120DFF8D8150870DFF8D005006830F415
:1006A0008070DFF8C815086000BF00BF00BF00BF42
:1006B00000BF00BF00BF00BFDFF8B005006850F406
:1006C0008070DFF8A815086000BF00BF00BF00BF42
:1006D00000BF00BF00BF00BFDFF89005006850F406
:1006E0008060DFF888150860DFF88005006850F446
:1006F0000070DFF878150860DFF87005006850F4C6
:100700000060DFF868150860DFF86005006830F405
:100710008060DFF85815086000BF00BF00BF00BF51
:1007200000BF00BF00BF00BF0520DFF84015087004
:10073000DFF83805006830F48070DFF830150860A5
:10074000DFF82805006850F48070DFF82015086095
:10075000DFF81805006850F48060DFF810150860B5
:10076000DFF80805006850F40070DFF80015086035
:10077000DFF8F804006850F40060DFF8F014086057
:10078000DFF8E804006830F48060DFF8E014086007
:1007900000BF00BF00BF00BF00BF00BF00BF00BF61
:1007A0003A20DFF8C8140870DFF8C004006830F49D
:1007B0008070DFF8B8140860DFF8B004006850F407
:1007C0008070DFF8A8140860DFF8A004006850F417
:1007D0008060DFF898140860DFF89004006850F437
:1007E0000070DFF888140860DFF88004006850F4B7
:1007F0000060DFF878140860DFF87004006830F4F7
:100800008060DFF86814086000BF00BF00BF00BF51
:1008100000BF00BF00BF00BF3A20DFF850140870CF
:10082000DFF84804006830F48070DFF84014086096
:10083000DFF83804006850F48070DFF83014086086
:10084000DFF82804006850F48060DFF820140860A6
:10085000DFF81804006850F40070DFF81014086026
:1008600000BF00BF00BF00BF00BF00BF00BF00BF90
:10087000DFF8F803006830F40060DFF8F013086078
:1008800000BF00BF00BF00BF00BF00BF00BF00BF70
:10089000DFF8D803006830F48060DFF8D013086018
:1008A00000BF00BF00BF00BF00BF00BF00BF00BF50
:1008B000B220DFF8B8130870DFF8B003006830F436
:1008C0008070DFF8A813086000BF00BF00BF00BF42
:1008D00000BF00BF00BF00BFDFF89003006850F406
:1008E0008070DFF88813086000BF00BF00BF00BF42
:1008F00000BF00BF00BF00BFDFF87003006850F406
:100900008060DFF868130860DFF86003006850F467
:100910000070DFF858130860DFF85003006850F4E7
:100920000060DFF848130860DFF84003006830F427
:100930008060DFF83813086000BF00BF00BF00BF51
:1009400000BF00BF00BF00BF0520DFF82013087004
:10095000DFF81803006830F48070C4490860C348A9
:10096000006850F48070C1490860C048006850F4C5
:100970008060BE490860BD48006850F40070BB4903
:100980000860BA48006850F40060B8490860B74889
:10099000006830F48060B549086000BF00BF00BF48
:1009A00000BF00BF00BF00BF00BF3A20AF490870C2
:1009B000AE48006830F48070AC490860AB4800680D
:1009C00050F48070A9490860A848006850F480601D
:1009D000A6490860A548006850F40070A349086063
:1009E000A248006850F40060A04908609F48006871
:1009F00030F480609D49086000BF00BF00BF00BFA9
:100A000000BF00BF00BF00BF3A2098490870974858
:100A1000006830F48070954908609448006850F48C
:100A20008070924908609148006850F480608F4956
:100A300008608E48006850F400708C49086000BF60
:100A400000BF00BF00BF00BF00BF00BF00BF87489E
:100A5000006830F400608549086000BF00BF00BF37
:100A600000BF00BF00BF00BF00BF8048006830F477
:100A700080607E49086000BF00BF00BF00BF00BFAC
:100A800000BF00BF00BFB3207849087077480068F6
:100A900030F480707549086000BF00BF00BF00BF20
:100AA00000BF00BF00BF00BF7048006850F48070F6
:100AB0006E49086000BF00BF00BF00BF00BF00BF9D
:100AC00000BF00BF6948006850F480606749086053
:100AD0006648006850F40070644908606348006824
:100AE00050F40060614908606048006830F480603C
:100AF0005E49086000BF00BF00BF00BF00BF00BF6D
:100B000000BF00BF0520594908705848006830F4FC
:100B10008070564908605548006850F48070534909
:100B200008605248006850F48060504908604F489F
:100B3000006850F400704D4908604C48006850F45B
:100B400000604A4908604948006830F480604749BD
:100B5000086000BF00BF00BF00BF00BF00BF00BFF4
:100B600000BF3A20414908704048006830F4807066
:100B70003E4908603D48006850F480703B49086079
:100B80003A48006850F48060384908603748006887
:100B900050F40070354908603448006850F4006033
:100BA000324908603148006830F480602F4908609D
:100BB00000BF00BF00BF00BF00BF00BF00BF00BF3D
:100BC0003A202A4908702948006830F48070274983
:100BD00008602648006850F4807024490860234863
:100BE000006850F48060214908602048006850F493
:100BF00000701E4908601D48006850F400601B49E1
:100C000008601A48006830F480601849086000BF26
:100C100000BF00BF00BF00BF00BF00BF00BF052076
:100C2000124908701148006830F480700F4908605C
:100C30000E48006850F480700C4908600B4800684A
:100C400050F48060094908600848006850F400705A
:100C5000064908600548006850F4006003490860D0
:100C60000248006830F48060004901E080F00F40E5
:100C7000086000BF00BF00BF00BF00BF00BF00BFD3
:100C800000BF3A20DFF864170870DFF860070068DB
:100C900030F48070DFF854170860DFF85007006800
:100CA00050F48070DFF844170860DFF840070068F0
:100CB00050F48060DFF834170860DFF83007006810
:100CC00050F40070DFF824170860DFF82007006890
:100CD00050F40060DFF814170860DFF810070068B0
:100CE00030F48060DFF80417086000BF00BF00BF69
:100CF00000BF00BF00BF00BF00BF3A20DFF8EC1606
:100D00000870DFF8E806006830F48070DFF8DC1661
:100D10000860DFF8D806006850F48070DFF8CC1661
:100D20000860DFF8C806006850F48060DFF8BC1681
:100D30000860DFF8B806006850F40070DFF8AC1601
:100D4000086000BF00BF00BF00BF00BF00BF00BF02
:100D500000BFDFF89806006830F40060DFF88C16FA
:100D6000086000BF00BF00BF00BF00BF00BF00BFE2
:100D700000BFDFF87806006830F48060DFF86C169A
:100D8000086000BF00BF00BF00BF00BF00BF00BFC2
:100D900000BFB420DFF854160870DFF85006006872
:100DA00030F48070DFF84416086000BF00BF00BF59
:100DB00000BF00BF00BF00BF00BFDFF83006006803
:100DC00050F48070DFF82416086000BF00BF00BF39
:100DD00000BF00BF00BF00BF00BFDFF81006006803
:100DE00050F48060DFF804160860DFF80006006841
:100DF00050F40070DFF8F4150860DFF8F0050068C3
:100E000050F40060DFF8E4150860DFF8E0050068E2
:100E100030F48060DFF8D415086000BF00BF00BF69
:100E200000BF00BF00BF00BF00BF0720DFF8BC1538
:100E30000870DFF8B805006830F48070DFF8AC1592
:100E40000860DFF8A805006850F48070DFF89C1592
:100E50000860DFF89805006850F48060DFF88C15B2
:100E60000860DFF88805006850F40070DFF87C1532
:100E7000086000BF00BF00BF00BF00BF00BF00BFD1
:100E800000BFDFF86805006830F40060DFF85C152B
:100E9000086000BF00BF00BF00BF00BF00BF00BFB1
:100EA00000BFDFF84805006830F48060DFF83C15CB
:100EB000086000BF00BF00BF00BF00BF00BF00BF91
:100EC00000BFC020DFF824150870DFF82005006897
:100ED00030F48070DFF81415086000BF00BF00BF59
:100EE00000BF00BF00BF00BF00BFDFF80005006803
:100EF00050F48070DFF8F414086000BF00BF00BF3A
:100F000000BF00BF00BF00BF00BFDFF8E004006803
:100F100050F48060DFF8D4140860DFF8D004006873
:100F200050F40070DFF8C4140860DFF8C0040068F3
:100F300050F40060DFF8B4140860DFF8B004006813
:100F400030F48060DFF8A414086000BF00BF00BF69
:100F500000BF00BF00BF00BF00BF2820DFF88C1417
:100F60000870DFF88804006830F48070DFF87C14C3
:100F70000860DFF87804006850F48070DFF86C14C3
:100F80000860DFF86804006850F48060DFF85C14E3
:100F90000860DFF85804006850F40070DFF84C1463
:100FA0000860DFF84804006850F40060DFF83C1483
:100FB0000860DFF83804006830F48060DFF82C1433
:100FC000086000BF00BF00BF00BF00BF00BF00BF80
:100FD00000BF0820DFF814140870DFF81004006860
:100FE00030F48070DFF804140860DFF80004006853
:100FF00050F48070DFF8F4130860DFF8F003006845
:1010000050F48060DFF8E4130860DFF8E003006864
:1010100050F40070DFF8D4130860DFF8D0030068E4
:1010200050F40060DFF8C4130860DFF8C003006804
:1010300030F48060DFF8B413086000BF00BF00BF69
:1010400000BF00BF00BF00BF00BF8420DFF89C13BB
:101050000870DFF89803006830F48070DFF88C13B4
:101060000860DFF88803006850F48070DFF87C13B4
:101070000860DFF87803006850F48060DFF86C13D4
:101080000860DFF86803006850F40070DFF85C1354
:10109000086000BF00BF00BF00BF00BF00BF00BFAF
:1010A00000BFDFF84803006830F40060DFF83C134D
:1010B000086000BF00BF00BF00BF00BF00BF00BF8F
:1010C00000BFCA48006830F48060C849086000BFAB
:1010D00000BF00BF00BF00BF00BF00BF00BFC120F6
:1010E000C2490870C148006830F48070BF49086088
:1010F00000BF00BF00BF00BF00BF00BF00BF00BFF8
:10110000BA48006850F48070B849086000BF00BF5A
:1011100000BF00BF00BF00BF00BF00BFB3480068F2
:1011200050F48060B1490860B048006850F4007025
:10113000AE490860AD48006850F40060AB490860F3
:10114000AA48006830F48060A849086000BF00BF6A
:1011500000BF00BF00BF00BF00BF00BFC020A34949
:101160000870A248006830F48070A04908609F4869
:10117000006850F480709D4908609C48006850F4F5
:1011800080609A4908609948006850F40070974957
:10119000086000BF00BF00BF00BF00BF00BF00BFAE
:1011A00000BF9248006830F400609049086000BFBA
:1011B00000BF00BF00BF00BF00BF00BF00BF8B4823
:1011C000006830F480608949086000BF00BF00BF3C
:1011D00000BF00BF00BF00BF00BFC220834908702E
:1011E0008248006830F480708049086000BF00BF0A
:1011F00000BF00BF00BF00BF00BF00BF7B4800684A
:1012000050F480707949086000BF00BF00BF00BF84
:1012100000BF00BF00BF00BF7448006850F480608A
:10122000724908607148006850F400706F490860A6
:101230006E48006850F400606C4908606B480068B4
:1012400030F480606949086000BF00BF00BF00BF84
:1012500000BF00BF00BF00BF0C2064490870634896
:10126000006830F48070614908606048006850F49C
:1012700080705E4908605D48006850F480605B499A
:1012800008605A48006850F4007058490860574890
:10129000006850F40060554908605448006830F414
:1012A00080605249086000BF00BF00BF00BF00BFA0
:1012B00000BF00BF00BF00204C4908704B480068C9
:1012C00030F48070494908604848006850F48070E4
:1012D000464908604548006850F48060434908600A
:1012E0004248006850F400704049086000BF00BFE9
:1012F00000BF00BF00BF00BF00BF00BF3B48006889
:1013000030F400603949086000BF00BF00BF00BF73
:1013100000BF00BF00BF00BF3448006830F48060E9
:101320003249086000BF00BF00BF00BF00BF00BF60
:1013300000BF00BFC3202D4908702C48006830F45E
:1013400080702A49086000BF00BF00BF00BF00BF17
:1013500000BF00BF00BF2548006850F480702349DB
:10136000086000BF00BF00BF00BF00BF00BF00BFDC
:1013700000BF1E48006850F480601C4908601B488C
:10138000006850F40070194908601848006850F46B
:101390000060164908601548006830F48060134901
:1013A000086000BF00BF00BF00BF00BF00BF00BF9C
:1013B00000BF8C200D4908700C48006830F4807024
:1013C0000A4908600948006850F4807007490860BD
:1013D0000648006850F480600449086003480068CB
:1013E00050F4007001490860004801E080F00F40AF
:1013F000006850F40060DFF838170860DFF8300745
:10140000006830F48060DFF82817086000BF00BF74
:1014100000BF00BF00BF00BF00BF00BF2A20DFF831
:1014200010170870DFF80807006830F48070DFF8E4
:1014300000170860DFF8F806006850F48070DFF8E5
:10144000F0160860DFF8E806006850F48060DFF806
:10145000E0160860DFF8D806006850F40070DFF886
:10146000D016086000BF00BF00BF00BF00BF00BFB4
:1014700000BF00BFDFF8B806006830F40060DFF896
:10148000B016086000BF00BF00BF00BF00BF00BFB4
:1014900000BF00BFDFF89806006830F48060DFF816
:1014A0009016086000BF00BF00BF00BF00BF00BFB4
:1014B00000BF00BFC420DFF878160870DFF87006A0
:1014C000006830F48070DFF86816086000BF00BF65
:1014D00000BF00BF00BF00BF00BF00BFDFF8500665
:1014E000006850F48070DFF84816086000BF00BF45
:1014F00000BF00BF00BF00BF00BF00BFDFF8300665
:10150000006850F48060DFF828160860DFF82006D5
:10151000006850F40070DFF818160860DFF8100655
:10152000006850F40060DFF808160860DFF8000675
:10153000006830F48060DFF8F815086000BF00BF75
:1015400000BF00BF00BF00BF00BF00BF8A20DFF8A0
:10155000E0150870DFF8D805006830F48070DFF817
:10156000D0150860DFF8C805006850F48070DFF817
:10157000C0150860DFF8B805006850F48060DFF837
:10158000B0150860DFF8A805006850F40070DFF8B7
:10159000A0150860DFF89805006850F40060DFF8D7
:1015A00090150860DFF88805006830F48060DFF887
:1015B0008015086000BF00BF00BF00BF00BF00BFB4
:1015C00000BF00BFEE20DFF868150870DFF8600587
:1015D000006830F48070DFF858150860DFF85005B7
:1015E000006850F48070DFF848150860DFF84005A7
:1015F000006850F48060DFF838150860DFF83005C7
:10160000006850F40070DFF82815086000BF00BFC4
:1016100000BF00BF00BF00BF00BF00BFDFF8100564
:10162000006830F40060DFF80815086000BF00BFF4
:1016300000BF00BF00BF00BF00BF00BFDFF8F00465
:10164000006830F48060DFF8E814086000BF00BF75
:1016500000BF00BF00BF00BF00BF00BFC520DFF854
:10166000D0140870DFF8C804006830F48070DFF828
:10167000C014086000BF00BF00BF00BF00BF00BFB4
:1016800000BF00BFDFF8A804006850F48070DFF8E6
:10169000A014086000BF00BF00BF00BF00BF00BFB4
:1016A00000BF00BFDFF88804006850F48060DFF8F6
:1016B00080140860DFF87804006850F40070DFF8E8
:1016C00070140860DFF86804006850F40060DFF808
:1016D00060140860DFF85804006830F48060DFF8B8
:1016E0005014086000BF00BF00BF00BF00BF00BFB4
:1016F00000BF00BF0C20DFF838140870DFF830049A
:10170000006830F48070DFF828140860DFF82004E7
:10171000006850F48070DFF818140860DFF81004D7
:10172000006850F48060DFF808140860DFF80004F7
:10173000006850F40070DFF8F813086000BF00BFC5
:1017400000BF00BF00BF00BF00BF00BFDFF8E00365
:10175000006830F40060DFF8D813086000BF00BFF5
:1017600000BF00BF00BF00BF00BF00BFDFF8C00365
:10177000006830F48060DFF8B813086000BF00BF75
:1017800000BF00BF00BF00BF00BF00BF3620DFF8B2
:10179000A0130870DFF89803006830F48070DFF859
:1017A0009013086000BF00BF00BF00BF00BF00BFB4
:1017B00000BF00BFDFF87803006850F48070DFF8E6
:1017C0007013086000BF00BF00BF00BF00BF00BFB4
:1017D00000BF00BFDFF85803006850F48060DFF8F6
:1017E00050130860DFF84803006850F40070DFF819
:1017F00040130860DFF83803006850F40060DFF839
:1018000030130860DFF82803006830F48060DFF8E8
:101810002013086000BF00BF00BF00BF00BF00BFB3
:1018200000BF00BF0820C2490870C148006830F4FA
:101830008070BF490860BE48006850F48070BC49A1
:101840000860BB48006850F48060B9490860B84837
:10185000006850F40070B649086000BF00BF00BFC8
:1018600000BF00BF00BF00BF00BFB148006830F438
:101870000060AF49086000BF00BF00BF00BF00BFED
:1018800000BF00BF00BFAA48006830F48060A849CC
:10189000086000BF00BF00BF00BF00BF00BF00BFA7
:1018A00000BFE020A2490870A148006830F48070B1
:1018B0009F49086000BF00BF00BF00BF00BF00BF5E
:1018C00000BF00BF9A48006850F4807098490860D3
:1018D00000BF00BF00BF00BF00BF00BF00BF00BF10
:1018E0009348006850F4806091490860904800680F
:1018F00050F400708E4908608D48006850F4006014
:101900008B4908608A48006830F480608849086024
:1019100000BF00BF00BF00BF00BF00BF00BF00BFCF
:101920000520834908708248006830F4807080493F
:1019300008607F48006850F480707D4908607C48EA
:10194000006850F480607A4908607948006850F473
:101950000070774908607648006850F40060744968
:1019600008607348006830F480607149086000BF07
:1019700000BF00BF00BF00BF00BF00BF00BF1A20F4
:101980006B4908706A48006830F4807068490860E4
:101990006748006850F480706549086064480068D2
:1019A00050F48060624908606148006850F400703B
:1019B0005F4908605E48006850F400605C49086058
:1019C0005B48006830F480605949086000BF00BF80
:1019D00000BF00BF00BF00BF00BF00BF0C205449C4
:1019E00008705348006830F48070514908605048CE
:1019F000006850F480704E4908604D48006850F40B
:101A000080604B4908604A48006850F400704849BB
:101A100008604748006850F4006045490860444841
:101A2000006830F480604249086000BF00BF00BF1A
:101A300000BF00BF00BF00BF00BF0E203C490870C0
:101A40003B48006830F480703949086038480068C5
:101A500050F48070364908603548006850F4806062
:101A6000334908603248006850F40070304908601B
:101A70002F48006850F400602D4908602C48006829
:101A800030F480602A49086000BF00BF00BF00BF7B
:101A900000BF00BF00BF00BF3A202549087024489E
:101AA000006830F48070224908602148006850F4D2
:101AB00080701F4908601E48006850F480601C490F
:101AC00008601B48006850F4007019490860184805
:101AD000006850F40060164908601548006830F44A
:101AE00080601349086000BF00BF00BF00BF00BF97
:101AF00000BF00BF00BF34200D4908700C480068CB
:101B000030F480700A4908600948006850F4807019
:101B1000074908600648006850F48060044908607E
:101B20000348006850F4007001490860004801E073
:101B300080F00F40006850F40060DFF8D01E0860AD
:101B4000DFF8C80E006830F48060DFF8C01E08605F
:101B500000BF00BF00BF00BF00BF00BF00BF00BF8D
:101B60002D20DFF8A81E0870DFF8A00E006830F402
:101B70008070DFF8981E0860DFF8900E006850F45F
:101B80008070DFF8881E0860DFF8800E006850F46F
:101B90008060DFF8781E0860DFF8700E006850F48F
:101BA0000070DFF8681E0860DFF8600E006850F40F
:101BB0000060DFF8581E0860DFF8500E006830F44F
:101BC0008060DFF8481E086000BF00BF00BF00BF94
:101BD00000BF00BF00BF00BF2F20DFF8301E08701D
:101BE000DFF8280E006830F48070DFF8201E0860EF
:101BF000DFF8180E006850F48070DFF8101E0860DF
:101C0000DFF8080E006850F48060DFF8001E0860FE
:101C1000DFF8F80D006850F40070DFF8F01D086080
:101C2000DFF8E80D006850F40060DFF8E01D0860A0
:101C3000DFF8D80D006830F48060DFF8D01D086050
:101C400000BF00BF00BF00BF00BF00BF00BF00BF9C
:101C50002D20DFF8B81D0870DFF8B00D006830F4F3
:101C60008070DFF8A81D0860DFF8A00D006850F450
:101C70008070DFF8981D0860DFF8900D006850F460
:101C80008060DFF8881D0860DFF8800D006850F480
:101C90000070DFF8781D0860DFF8700D006850F400
:101CA0000060DFF8681D0860DFF8600D006830F440
:101CB0008060DFF8581D086000BF00BF00BF00BF94
:101CC00000BF00BF00BF00BF2A20DFF8401D087022
:101CD000DFF8380D006830F48070DFF8301D0860E0
:101CE000DFF8280D006850F48070DFF8201D0860D0
:101CF000DFF8180D006850F48060DFF8101D0860F0
:101D0000DFF8080D006850F40070DFF8001D08606F
:101D1000DFF8F80C006850F40060DFF8F01C086091
:101D2000DFF8E80C006830F48060DFF8E01C086041
:101D300000BF00BF00BF00BF00BF00BF00BF00BFAB
:101D40002F20DFF8C81C0870DFF8C00C006830F4E2
:101D50008070DFF8B81C0860DFF8B00C006850F441
:101D60008070DFF8A81C0860DFF8A00C006850F451
:101D70008060DFF8981C0860DFF8900C006850F471
:101D80000070DFF8881C0860DFF8800C006850F4F1
:101D90000060DFF8781C0860DFF8700C006830F431
:101DA0008060DFF8681C086000BF00BF00BF00BF94
:101DB00000BF00BF00BF00BF3C20DFF8501C087010
:101DC000DFF8480C006830F48070DFF8401C0860D1
:101DD000DFF8380C006850F48070DFF8301C0860C1
:101DE000DFF8280C006850F48060DFF8201C0860E1
:101DF000DFF8180C006850F40070DFF8101C086061
:101E0000DFF8080C006850F40060DFF8001C086080
:101E1000DFF8F80B006830F48060DFF8F01B086032
:101E200000BF00BF00BF00BF00BF00BF00BF00BFBA
:101E30000020DFF8D81B0870DFF8D00B006830F402
:101E40008070DFF8C81B0860DFF8C00B006850F432
:101E50008070DFF8B81B0860DFF8B00B006850F442
:101E60008060DFF8A81B0860DFF8A00B006850F462
:101E70000070DFF8981B0860DFF8900B006850F4E2
:101E80000060DFF8881B0860DFF8800B006830F422
:101E90008060DFF8781B086000BF00BF00BF00BF94
:101EA00000BF00BF00BF00BF0120DFF8601B08704B
:101EB000DFF8580B006830F48070DFF8501B0860C2
:101EC000DFF8480B006850F48070DFF8401B0860B2
:101ED000DFF8380B006850F48060DFF8301B0860D2
:101EE000DFF8280B006850F40070DFF8201B086052
:101EF000DFF8180B006850F40060DFF8101B086072
:101F0000DFF8080B006830F48060DFF8001B086021
:101F100000BF00BF00BF00BF00BF00BF00BF00BFC9
:101F20000220DFF8E81A0870DFF8E00A006830F4F1
:101F30008070DFF8D81A0860DFF8D00A006850F423
:101F40008070DFF8C81A0860DFF8C00A006850F433
:101F50008060DFF8B81A0860DFF8B00A006850F453
:101F60000070DFF8A81A0860DFF8A00A006850F4D3
:101F70000060DFF8981A0860DFF8900A006830F413
:101F80008060DFF8881A086000BF00BF00BF00BF94
:101F900000BF00BF00BF00BF1020DFF8701A08703C
:101FA000DFF8680A006830F48070DFF8601A0860B3
:101FB000DFF8580A006850F48070DFF8501A0860A3
:101FC000DFF8480A006850F48060DFF8401A0860C3
:101FD000DFF8380A006850F40070DFF8301A086043
:101FE00000BF00BF00BF00BF00BF00BF00BF00BFF9
:101FF000DFF8180A006830F40060DFF8101A086093
:1020000000BF00BF00BF00BF00BF00BF00BF00BFD8
:10201000DFF8F809006830F48060DFF8F019086034
:1020200000BF00BF00BF00BF00BF00BF00BF00BFB8
:10203000E120DFF8D8190870DFF8D009006830F423
:102040008070DFF8C819086000BF00BF00BF00BF84
:1020500000BF00BF00BF00BFDFF8B009006850F448
:102060008070DFF8A819086000BF00BF00BF00BF84
:1020700000BF00BF00BF00BFDFF89009006850F448
:102080008060DFF888190860DFF88009006850F484
:102090000070DFF878190860DFF87009006850F404
:1020A0000060DFF868190860DFF86009006830F444
:1020B0008060DFF85819086000BF00BF00BF00BF94
:1020C00000BF00BF00BF00BF0420DFF84019087048
:1020D000DFF83809006830F48070DFF830190860E4
:1020E000DFF82809006850F48070DFF820190860D4
:1020F000DFF81809006850F48060DFF810190860F4
:10210000DFF80809006850F40070DFF80019086073
:10211000DFF8F808006850F40060DFF8F018086095
:10212000DFF8E808006830F48060DFF8E018086045
:1021300000BF00BF00BF00BF00BF00BF00BF00BFA7
:102140001B20DFF8C8180870DFF8C008006830F4FA
:102150008070DFF8B8180860DFF8B008006850F445
:102160008070DFF8A8180860DFF8A008006850F455
:102170008060DFF898180860DFF89008006850F475
:102180000070DFF888180860DFF88008006850F4F5
:102190000060DFF878180860DFF87008006830F435
:1021A0008060DFF86818086000BF00BF00BF00BF94
:1021B00000BF00BF00BF00BF0D20DFF8501808703F
:1021C000DFF84808006830F48070DFF840180860D5
:1021D000DFF83808006850F48070DFF830180860C5
:1021E000DFF82808006850F48060DFF820180860E5
:1021F000DFF81808006850F40070DFF81018086065
:10220000DFF80808006850F40060DFF80018086084
:10221000DFF8F807006830F48060DFF8F017086036
:1022200000BF00BF00BF00BF00BF00BF00BF00BFB6
:102230000E20DFF8D8170870DFF8D007006830F4F8
:102240008070DFF8C8170860DFF8C007006850F436
:102250008070DFF8B8170860DFF8B007006850F446
:102260008060DFF8A8170860DFF8A007006850F466
:102270000070DFF898170860DFF89007006850F4E6
:102280000060DFF888170860DFF88007006830F426
:102290008060DFF87817086000BF00BF00BF00BF94
:1022A00000BF00BF00BF00BF2D20DFF8601708701F
:1022B000DFF85807006830F48070DFF850170860C6
:1022C000DFF84807006850F48070DFF840170860B6
:1022D000DFF83807006850F48060DFF830170860D6
:1022E000DFF82807006850F40070DFF82017086056
:1022F000DFF81807006850F40060DFF81017086076
:10230000DFF80807006830F48060DFF80017086025
:1023100000BF00BF00BF00BF00BF00BF00BF00BFC5
:102320002920DFF8E8160870DFF8E006006830F4CE
:102330008070DFF8D8160860DFF8D006006850F427
:102340008070DFF8C8160860DFF8C006006850F437
:102350008060DFF8B8160860DFF8B006006850F457
:102360000070DFF8A8160860DFF8A006006850F4D7
:102370000060DFF898160860DFF89006006830F417
:102380008060DFF88816086000BF00BF00BF00BF94
:1023900000BF00BF00BF00BF2420DFF87016087028
:1023A000DFF86806006830F48070DFF860160860B7
:1023B000DFF85806006850F48070DFF850160860A7
:1023C000DFF84806006850F48060DFF840160860C7
:1023D000DFF83806006850F40070DFF83016086047
:1023E000DFF82806006850F40060DFF82016086067
:1023F000DFF81806006830F48060DFF81016086017
:1024000000BF00BF00BF00BF00BF00BF00BF00BFD4
:102410002920DFF8F8150870DFF8F005006830F4BF
:102420008070DFF8E8150860DFF8E005006850F418
:102430008070DFF8D8150860DFF8D005006850F428
:102440008060DFF8C8150860DFF8C005006850F448
:102450000070DFF8B8150860DFF8B005006850F4C8
:102460000060DFF8A8150860DFF8A005006830F408
:102470008060DFF89815086000BF00BF00BF00BF94
:1024800000BF00BF00BF00BF2820DFF88015087024
:10249000DFF87805006830F48070DFF870150860A8
:1024A000DFF86805006850F48070DFF86015086098
:1024B000DFF85805006850F48060DFF850150860B8
:1024C000DFF84805006850F40070DFF84015086038
:1024D000DFF83805006850F40060DFF83015086058
:1024E000DFF82805006830F48060DFF82015086008
:1024F00000BF00BF00BF00BF00BF00BF00BF00BFE4
:102500002620DFF808150870DFF80005006830F4B1
:102510008070DFF8F8140860DFF8F004006850F409
:102520008070DFF8E8140860DFF8E004006850F419
:102530008060DFF8D8140860DFF8D004006850F439
:102540000070DFF8C8140860DFF8C004006850F4B9
:102550000060DFF8B8140860DFF8B004006830F4F9
:102560008060DFF8A814086000BF00BF00BF00BF94
:1025700000BF00BF00BF00BF3120DFF8901408701B
:10258000DFF88804006830F48070DFF88014086099
:10259000DFF87804006850F48070DFF87014086089
:1025A000DFF86804006850F48060DFF860140860A9
:1025B000DFF85804006850F40070DFF85014086029
:1025C000DFF84804006850F40060DFF84014086049
:1025D000DFF83804006830F48060DFF830140860F9
:1025E00000BF00BF00BF00BF00BF00BF00BF00BFF3
:1025F0003B20DFF818140870DFF81004006830F48E
:102600008070DFF808140860DFF80004006850F4F8
:102610008070DFF8F8130860DFF8F003006850F40A
:102620008060DFF8E8130860DFF8E003006850F42A
:102630000070DFF8D8130860DFF8D003006850F4AA
:102640000060DFF8C8130860DFF8C003006830F4EA
:102650008060DFF8B813086000BF00BF00BF00BF94
:1026600000BF00BF00BF00BF0020DFF8A01308704C
:10267000DFF89803006830F48070DFF8901308608A
:10268000DFF88803006850F48070DFF8801308607A
:10269000DFF87803006850F48060DFF8701308609A
:1026A000DFF86803006850F40070DFF8601308601A
:1026B000DFF85803006850F40060DFF8501308603A
:1026C000DFF84803006830F48060DFF840130860EA
:1026D00000BF00BF00BF00BF00BF00BF00BF00BF02
:1026E0000020CA490870C948006830F48070C749A2
:1026F0000860C648006850F48070C4490860C34848
:10270000006850F48060C1490860C048006850F417
:102710000070BE490860BD48006850F40060BB49C5
:102720000860BA48006830F48060B849086000BFAB
:1027300000BF00BF00BF00BF00BF00BF00BF03203D
:10274000B2490870B148006830F48070AF49086041
:10275000AE48006850F48070AC490860AB4800682F
:1027600050F48060A9490860A848006850F40070DF
:10277000A6490860A548006850F40060A3490860B5
:10278000A248006830F48060A049086000BF00BF24
:1027900000BF00BF00BF00BF00BF00BF12209B49A9
:1027A00008709A48006830F480709849086097482B
:1027B000006850F48070954908609448006850F4AF
:1027C0008060924908609148006850F400708F4919
:1027D000086000BF00BF00BF00BF00BF00BF00BF58
:1027E00000BF8A48006830F400608849086000BF74
:1027F00000BF00BF00BF00BF00BF00BF00BF8348D5
:10280000006830F480608149086000BF00BF00BFED
:1028100000BF00BF00BF00BF00BF3A207B49087067
:102820007A48006830F480707849086000BF00BFC3
:1028300000BF00BF00BF00BF00BF00BF73480068FB
:1028400050F480707149086000BF00BF00BF00BF36
:1028500000BF00BF00BF00BF6C48006850F480603C
:102860006A4908606948006850F400706749086068
:102870006648006850F40060644908606348006876
:1028800030F480606149086000BF00BF00BF00BF36
:1028900000BF00BF00BF00BF05205C4908705B4857
:1028A000006830F48070594908605848006850F456
:1028B0008070564908605548006850F4806053495C
:1028C00008605248006850F400705049086000BF2A
:1028D00000BF00BF00BF00BF00BF00BF00BF4B482C
:1028E000006830F400604949086000BF00BF00BFC5
:1028F00000BF00BF00BF00BF00BF4448006830F405
:1029000080604249086000BF00BF00BF00BF00BF39
:1029100000BF00BF00BF29203C4908703B48006849
:1029200030F480703949086000BF00BF00BF00BFAD
:1029300000BF00BF00BF00BF3448006850F4807083
:102940003249086000BF00BF00BF00BF00BF00BF2A
:1029500000BF00BF2D48006850F480602B4908601C
:102960002A48006850F400702849086000BF00BF82
:1029700000BF00BF00BF00BF00BF00BF234800680A
:1029800030F400602149086000BF00BF00BF00BFF5
:1029900000BF00BF00BF00BF1C48006830F480606B
:1029A0001A49086000BF00BF00BF00BF00BF00BFE2
:1029B00000BF00BF2C20154908701448006830F48F
:1029C00080701249086000BF00BF00BF00BF00BF99
:1029D00000BF00BF00BF0D48006850F480700B4975
:1029E000086000BF00BF00BF00BF00BF00BF00BF46
:1029F00000BF0648006850F480600449086003483E
:102A0000006850F40070014902E000BF80F00F4000
:102A1000086000BF00BF00BF00BF00BF00BF00BF15
:102A200000BFDFF8CC09006830F40060DFF8C0199F
:102A3000086000BF00BF00BF00BF00BF00BF00BFF5
:102A400000BFDFF8AC09006830F48060DFF8A0193F
:102A5000086000BF00BF00BF00BF00BF00BF00BFD5
:102A600000BF2A20DFF888190870DFF884090068A1
:102A700030F48070DFF87819086000BF00BF00BF35
:102A800000BF00BF00BF00BF00BFDFF864090068DF
:102A900050F48070DFF85819086000BF00BF00BF15
:102AA00000BF00BF00BF00BF00BFDFF844090068DF
:102AB00050F48060DFF838190860DFF834090068E6
:102AC00050F40070DFF828190860DFF82409006866
:102AD00050F40060DFF818190860DFF81409006886
:102AE00030F48060DFF80819086000BF00BF00BF45
:102AF00000BF00BF00BF00BF00BF0020DFF8F0181C
:102B00000870DFF8EC08006830F48070DFF8E01837
:102B10000860DFF8DC08006850F48070DFF8D01837
:102B20000860DFF8CC08006850F48060DFF8C01857
:102B30000860DFF8BC08006850F40070DFF8B018D7
:102B40000860DFF8AC08006850F40060DFF8A018F7
:102B50000860DFF89C08006830F48060DFF89018A7
:102B6000086000BF00BF00BF00BF00BF00BF00BFC4
:102B700000BF0220DFF878180870DFF874080068DA
:102B800030F48070DFF868180860DFF864080068C7
:102B900050F48070DFF858180860DFF854080068B7
:102BA00050F48060DFF848180860DFF844080068D7
:102BB00050F40070DFF838180860DFF83408006857
:102BC00050F40060DFF828180860DFF82408006877
:102BD00030F48060DFF81818086000BF00BF00BF45
:102BE00000BF00BF00BF00BF00BF0020DFF800181B
:102BF0000870DFF8FC07006830F48070DFF8F01729
:102C00000860DFF8EC07006850F48070DFF8E01728
:102C10000860DFF8DC07006850F48060DFF8D01748
:102C20000860DFF8CC07006850F40070DFF8C017C8
:102C30000860DFF8BC07006850F40060DFF8B017E8
:102C40000860DFF8AC07006830F48060DFF8A01798
:102C5000086000BF00BF00BF00BF00BF00BF00BFD3
:102C600000BF8120DFF888170870DFF8840700684C
:102C700030F48070DFF878170860DFF874070068B8
:102C800050F48070DFF868170860DFF864070068A8
:102C900050F48060DFF858170860DFF854070068C8
:102CA00050F40070DFF84817086000BF00BF00BF95
:102CB00000BF00BF00BF00BF00BFDFF834070068DF
:102CC00030F40060DFF82817086000BF00BF00BFC5
:102CD00000BF00BF00BF00BF00BFDFF814070068DF
:102CE00030F48060DFF80817086000BF00BF00BF45
:102CF00000BF00BF00BF00BF00BF2B20DFF8F016F1
:102D00000870DFF8EC06006830F48070DFF8E01639
:102D1000086000BF00BF00BF00BF00BF00BF00BF12
:102D200000BFDFF8CC06006850F48070DFF8C016F2
:102D3000086000BF00BF00BF00BF00BF00BF00BFF2
:102D400000BFDFF8AC06006850F48060DFF8A01622
:102D50000860DFF89C06006850F40070DFF89016F9
:102D60000860DFF88C06006850F40060DFF8801619
:102D70000860DFF87C06006830F48060DFF87016C9
:102D8000086000BF00BF00BF00BF00BF00BF00BFA2
:102D900000BF0020DFF858160870DFF854060068FE
:102DA00030F48070DFF848160860DFF844060068E9
:102DB00050F48070DFF838160860DFF834060068D9
:102DC00050F48060DFF828160860DFF824060068F9
:102DD00050F40070DFF818160860DFF81406006879
:102DE00050F40060DFF808160860DFF80406006899
:102DF00030F48060DFF8F815086000BF00BF00BF46
:102E000000BF00BF00BF00BF00BF0320DFF8E01518
:102E10000870DFF8DC05006830F48070DFF8D0154A
:102E20000860DFF8CC05006850F48070DFF8C0154A
:102E30000860DFF8BC05006850F48060DFF8B0156A
:102E40000860DFF8AC05006850F40070DFF8A015EA
:102E50000860DFF89C05006850F40060DFF890150A
:102E60000860DFF88C05006830F48060DFF88015BA
:102E7000086000BF00BF00BF00BF00BF00BF00BFB1
:102E800000BF0020DFF868150870DFF864050068EF
:102E900030F48070DFF858150860DFF854050068DA
:102EA00050F48070DFF848150860DFF844050068CA
:102EB00050F48060DFF838150860DFF834050068EA
:102EC00050F40070DFF828150860DFF8240500686A
:102ED00050F40060DFF818150860DFF8140500688A
:102EE00030F48060DFF80815086000BF00BF00BF45
:102EF00000BF00BF00BF00BF00BF8220DFF8F0149A
:102F00000870DFF8EC04006830F48070DFF8E0143B
:102F10000860DFF8DC04006850F48070DFF8D0143B
:102F20000860DFF8CC04006850F48060DFF8C0145B
:102F30000860C82000F041FB01BD000003B4DFF8C9
:102F4000B004006850F40070DFF8A414086000BFFB
:102F500000BF00BF00BF00BF00BF00BF00BFDFF861
:102F60009004006830F40060DFF88414086000BF4B
:102F700000BF00BF00BF00BF00BF00BF00BFDFF841
:102F80007004006830F48060DFF86414086000BFEB
:102F900000BF00BF00BF00BF00BF00BF00BF2A20AE
:102FA000DFF84C140870DFF84804006830F48070D3
:102FB000DFF83C14086000BF00BF00BF00BF00BFC7
:102FC00000BF00BF00BFDFF82804006850F4807025
:102FD000DFF81C14086000BF00BF00BF00BF00BFC7
:102FE00000BF00BF00BFDFF80804006850F4806035
:102FF000DFF8FC130860DFF8F803006850F4007095
:10300000DFF8EC130860DFF8E803006850F40060B4
:10301000DFF8DC130860DFF8D803006830F4806064
:10302000DFF8CC13086000BF00BF00BF00BF00BFC7
:1030300000BF00BF00BFBDF80000401C0012DFF859
:10304000B0130870DFF8A803006830F48070DFF870
:10305000A0130860DFF89803006850F48070DFF870
:1030600090130860DFF88803006850F48060DFF890
:1030700080130860DFF87803006850F40070DFF810
:1030800070130860DFF86803006850F40060DFF830
:1030900060130860DFF85803006830F48060DFF8E0
:1030A0005013086000BF00BF00BF00BF00BF00BFDB
:1030B00000BF00BFBDF80000401CDFF834130870EB
:1030C000DFF82C03006830F48070C9490860C848F4
:1030D000006850F48070C6490860C548006850F424
:1030E0008060C3490860C248006850F40070C0495D
:1030F0000860BF48006850F40060BD490860BC48E3
:10310000006830F48060BA49086000BF00BF00BFAB
:1031100000BF00BF00BF00BF00BFBDF80000BDF88A
:10312000041011FA80F00012B1490870B04800682C
:1031300030F48070AE490860AD48006850F480708B
:10314000AB490860AA48006850F48060A84908604C
:10315000A748006850F40070A5490860A4480068BA
:1031600050F40060A2490860A148006830F4806013
:103170009F49086000BF00BF00BF00BF00BF00BF85
:1031800000BF00BFBDF80010BDF80400411898480A
:1031900001709748006830F4807095490860944841
:1031A000006850F48070924908609148006850F4BB
:1031B00080608F4908608E48006850F400708C4928
:1031C000086000BF00BF00BF00BF00BF00BF00BF5E
:1031D00000BF8748006830F400608549086000BF80
:1031E00000BF00BF00BF00BF00BF00BF00BF8048DE
:1031F000006830F480607E49086000BF00BF00BFF7
:1032000000BF00BF00BF00BF00BF2B20784908707F
:103210007748006830F480707549086000BF00BFCF
:1032200000BF00BF00BF00BF00BF00BF7048006804
:1032300050F480706E49086000BF00BF00BF00BF3F
:1032400000BF00BF00BF00BF6948006850F4806045
:10325000674908606648006850F400706449086077
:103260006348006850F40060614908606048006885
:1032700030F480605E49086000BF00BF00BF00BF3F
:1032800000BF00BF00BF00BFBDF8020080B2000A4F
:10329000574908705648006830F4807054490860F7
:1032A0005348006850F480705149086050480068E5
:1032B00050F480604E4908604D48006850F400703A
:1032C0004B4908604A48006850F40060484908606B
:1032D0004748006830F480604549086000BF00BF7F
:1032E00000BF00BF00BF00BF00BF00BFBDF80200AD
:1032F0003F4908703E48006830F480703C490860DF
:103300003B48006850F480703949086038480068CC
:1033100050F48060364908603548006850F4007009
:10332000334908603248006850F400603049086052
:103330002F48006830F480602D49086000BF00BF4E
:1033400000BF00BF00BF00BF00BF00BFBDF802004C
:10335000BDF8061011FA80F0401E001224490870D2
:103360002348006830F480702149086020480068D4
:1033700050F480701E4908601D48006850F4806059
:103380001B4908601A48006850F40070184908602A
:103390001748006850F40060154908601448006838
:1033A00030F480601249086000BF00BF00BF00BF5A
:1033B00000BF00BF00BF00BFBDF80210BDF806008F
:1033C0004118481E0A4908700948006830F48070A6
:1033D000074908600648006850F480700449086096
:1033E0000348006850F480600149086002B07047EB
:1033F00080F00F40F8B504000D0016001F00EDB27C
:10340000202D02D2FFB2022F03D324213F4800F027
:10341000FBF83F48E4B250F82400EDB2F6B256F49F
:10342000807140F82510F00705D5F6B2032E02D0C2
:10343000F6B2132E0DD13748E4B250F8240040699B
:103440000121A94088433349E4B251F8241048616E
:103450002DE03048E4B250F8240040690121A94031
:1034600008432C49E4B251F824104861FFB2012FFF
:1034700010D12848E4B250F8240000680121A94086
:1034800088430121A94008432249E4B251F824109D
:1034900008600CE01F48E4B250F8240000680121E5
:1034A000A94088431B49E4B251F824100860F1BDDB
:1034B00070B504000D001600EDB2202D02D2F6B258
:1034C000022E03D34B21114800F09EF8F6B2012ED4
:1034D0000DD11048E4B250F8240000680121A94041
:1034E00008430C49E4B251F8241008600CE0094884
:1034F000E4B250F8240000680121A940884305493E
:10350000E4B251F82410086070BD00006CA1000006
:10351000A804FF1F9404FF1FF8B504000D00160057
:103520001F00F6B2102E01DB0F200600E4B2012CC2
:103530000AD12E48006850F400702C4908604FF4FE
:10354000C0602B49086011E0E4B2022C0AD1274880
:10355000006850F40060254908604FF480602549F8
:10356000086003E02D21244800F04EF81F48006851
:1035700050F001001D490860002020490860ADB2EC
:103580001F480560F6B2F00010F0780050F005001A
:103590001C490860FFB2012F01D1082000E0002083
:1035A000E4B2210111F03001084350F04300134907
:1035B0000860552000F03BF8F1BD0C49096851F056
:1035C00001010A4A11600E49086005210D4A116087
:1035D00001210A4A1160094909680906FBD5074912
:1035E000096849084900054A11607047388004405D
:1035F0004C90044014B0044078A000000000044047
:10360000080004400400044038B504000D0000F038
:10361000A7F82A002100034800F096FB00F0C9F843
:10362000F7E700BFBCA1000041490860704710B532
:1036300004005C2C02DB3F4800F086FB202094FB5A
:10364000F0F0002803D002282BD015D33DE0202134
:10365000012294FBF1F301FB134112FA01F1364A06
:1036600011602021012294FBF1F301FB134112FAB6
:1036700001F1324A116028E02021012294FBF1F38C
:1036800001FB134112FA01F12D4A116020210122A0
:1036900094FBF1F301FB134112FA01F1294A116085
:1036A00013E02021012294FBF1F301FB134112FAF4
:1036B00001F1254A11602021012294FBF1F301FB65
:1036C000134112FA01F1214A116010BD10B5040036
:1036D0005C2C02DB1E4800F037FB202094FBF0F04E
:1036E000002803D0022817D00BD31FE0202101228D
:1036F00094FBF1F301FB134112FA01F1154A116039
:1037000014E02021012294FBF1F301FB134112FA92
:1037100001F1114A116009E02021012294FBF1F32B
:1037200001FB134112FA01F10C4A116010BD0000B7
:1037300008ED00E058A3000080E200E000E100E0B6
:1037400084E200E004E100E088E200E008E100E05B
:103750001CA3000080E100E084E100E088E100E0DB
:1037600080B5012301220C210320FFF743FE012332
:1037700001220D210320FFF73DFE012301220E212E
:103780000320FFF737FE012301220F210320FFF75B
:1037900031FE01BD1D4AD2681268012383409A435D
:1037A000C9B211F0010383401A43184BDB681A6059
:1037B000704710B5012301220C210320FFF71AFEE8
:1037C000012301220D210320FFF714FE0123012212
:1037D0000E210320FFF70EFE012301220F210320FB
:1037E000FFF708FE0C24E4B2102C0EDA00212000B2
:1037F000C0B2FFF7CFFF642000F0BAFA0121200029
:10380000C0B2FFF7C7FF641CEDE710BD9404FF1FB3
:1038100070B504000D0016003068012802D002289F
:1038200005D00AE02000C0B27168884705E0B068A2
:103830000470B068401CB060FFE72868401C286036
:1038400070BD2DE9F04706000D00140000205FF068
:10385000000986F8009016F10109002C24D0D5F853
:1038600000A05146002905D15FF0300A89F800A078
:10387000401C3CE000293AD091FBF3FA574603FB89
:10388000171ABAF1000F05D5D4467FEA0C0C1CF1CB
:10389000310C02E0D4461CF1300C390089F800C02C
:1038A00019F10109401CE5E7D5F800A05246002AAD
:1038B00005D15FF0300A89F800A0401C17E0002A0B
:1038C00015D0B2FBF3FAD64603FB1E2ABAF10A0F53
:1038D00003D2D04618F1300802E0D04618F137087C
:1038E000724689F8008019F10109401CE7E7BDE83C
:1038F000F0872DE9F04104000D0016001F00A046DE
:10390000A84507DA3A0031003020FFF781FF18F1AF
:103910000108F5E7BDE8F0812DE9F04104000D0054
:1039200016001F00A046A84507DA3A003100202003
:10393000FFF76EFF18F10108F5E7BDE8F0812DE90A
:10394000F24F92B00500934600200090DDF84880C9
:1039500098F8000001900198002800F0F18101988A
:10396000252813D001980A2805D02A006946019815
:10397000FFF74EFF09E02A0069460D20FFF748FFD8
:103980002A0069460A20FFF743FFD6E1002006001F
:103990000020002822D118F1010898F800102029F1
:1039A0000ED0232912D02B2907D02D2902D030295F
:1039B00009D00EE056F00106EBE756F00206E8E704
:1039C00056F00406E5E756F00806E2E756F0100662
:1039D000DFE7B8F1010801210800DAE700210F0054
:1039E000002105910598002813D118F1010898F8D5
:1039F0000000019001983038092805D80A21019863
:103A000001FB0707303FEDE7B8F101080120059001
:103A1000E8E718F1010108782E280ED10020059062
:103A2000059800280AD1491C08783038092800D8A0
:103A3000F6E7491E01200590F2E7491E481C01786F
:103A40004C2906D0682902D06C2901D002E002E09E
:103A500001E000E0401E10F1010898F8000001901C
:103A60000198582876D0622800F0D680632800F0AC
:103A70002481642813D0692811D06E2800F04F816A
:103A80006F2800F0BC80702800F0D380732800F00D
:103A90002081752800F0DA8078285BD048E1DBF8D7
:103AA00000001BF1040B06900A23012206A909A8B5
:103AB000FFF7C7FE814609A84844824606980028B9
:103AC00004D52D20039019F101090FE0B00704D5AA
:103AD0002B20039019F1010908E0700704D520207C
:103AE000039019F1010901E00020039000200490E7
:103AF000300711D50398002804D02A00694603989E
:103B0000FFF786FE012004902B006A4639004846E4
:103B1000FFF7EFFEB94611E0F0070FD42B006A461D
:103B200039004846FFF7F8FE0398002804D02A0021
:103B300069460398FFF76CFE012004900498002862
:103B400007D10398002804D02A0069460398FFF79C
:103B50005FFE9CE0DBF800001BF1040B02901023D9
:103B6000002202A909A8FFF76CFE814609A8484473
:103B7000824600200490300715D5F0060BD52A00A8
:103B800069463020FFF744FE2A0069467820FFF797
:103B90003FFE012004902B006A4639004846FFF79B
:103BA000A8FEB94619E0F00717D4F00601D519F1BF
:103BB00002092B006A4639004846FFF7ADFEF006C1
:103BC0000BD52A0069463020FFF722FE2A006946FD
:103BD0007820FFF71DFE01200490F0060ED5049812
:103BE00000280BD12A0069463020FFF711FE2A0079
:103BF00069467820FFF70CFE19F1020947E0DBF86F
:103C000000001BF1040B02900823002202A909A85E
:103C1000FFF717FE814625E0DBF800001BF1040BDF
:103C200002900223002202A909A8FFF70AFE81469A
:103C300018E0DBF800001BF1040B029010230022B7
:103C400002A909A8FFF7FDFD81460BE0DBF80000A3
:103C50001BF1040B02900A23002202A909A8FFF716
:103C6000F0FD814609A848448246300707D52B005D
:103C70006A4639004846FFF73CFEB94607E0F007C0
:103C800005D42B006A4639004846FFF745FE9AF8EE
:103C90000000002808D02A0069469AF80000FFF7C3
:103CA000B7FDBAF1010AF2E7F00705D52B006A4625
:103CB00039004846FFF730FE3FE0DBF800001BF11B
:103CC000040BC0B207902A0069460798FFF7A0FDD1
:103CD00033E0DBF800001BF1040B0400002C1DD0C6
:103CE000200000F055F88146F00705D42B006A4605
:103CF00039004846FFF710FE2078002806D02A0039
:103D000069462078FFF784FD641CF5E7F00705D5C8
:103D10002B006A4639004846FFF7FEFD0DE0DBF850
:103D200000001BF1040B089000980899086004E05B
:103D30002A0069460198FFF76BFD18F1010807E6B4
:103D4000009813B0BDE8F08F0EB43FB50400012019
:103D500000900648019007AD2A0021006846FFF751
:103D6000EEFD04B030BC5DF810FB0000D5A90000EA
:103D70000022824209D2054B1B681900002902D09B
:103D800000BF491EFAE7521CF3E77047D443FF1FF8
:103D9000020011000023002901D1002007E00800E3
:103DA000411C0078002801D05B1CF8E71800704720
:103DB00010B50400DFF8F00A0078002806D1DFF81B
:103DC000D00B04600120DFF8E01A08702000DFF853
:103DD000C01B096800F03EFEDFF8B41B0C6010BD8C
:103DE00010B50400DFF8E40A0078002806D1DFF8F7
:103DF000C40B04600120DFF8D41A08702000DFF83B
:103E0000B41B096800F026FEDFF8A81B0C6010BD8B
:103E100010B50400DFF8F40A0078002806D1DFF8B6
:103E2000980B04600120DFF8E41A08702000DFF826
:103E3000881B096800F00EFEDFF87C1B0C6010BDCB
:103E400010B50400DFF8C80A0078002806D1DFF8B2
:103E50006C0B04600120DFF8B81A08702000DFF84E
:103E60005C1B096800F0F6FDDFF8501B0C6010BD0C
:103E700010B50400DFF8480B0068210000F02AFEAE
:103E8000DFF83C1B0860DFF8380B006810BD10B588
:103E90000400DFF8300B0068210000F01BFEDFF8A3
:103EA000241B0860DFF81C0B006810BD10B504006F
:103EB000DFF8140B0068210000F00CFEDFF8081B8F
:103EC0000860DFF8040B006810BD10B50400DFF8CF
:103ED000FC0A0068210000F0FDFDDFF8F01A086020
:103EE000DFF8E80A006810BD80B501220721012033
:103EF000FFF7DEFADFF8D80A006800F05DFE020086
:103F00000021012001F012F8DFF8C40A006800F077
:103F100053FE02000121012001F008F8DFF8B40A85
:103F2000006800F049FE02000021022000F0FEFFC0
:103F30000120DFF8A41A08600120DFF8A01A086049
:103F40006420FFF715FF002207210120FFF7B0FAD8
:103F500001BDF0B4020015003B21C9B2002944D0D4
:103F600000200300DBB20A2B3DDA287804006D1C28
:103F7000082006003000461EC0B2002831D00120C3
:103F8000B0402700FFB2074215D0DFF8547ADBB209
:103F90005FEAC30C1CF1070CF6B2BCEB060C3C202C
:103FA00000FB0CFC07EB0C00C9B24F423844012760
:103FB00080F83B70DEE7DFF8287ADBB25FEAC30CFB
:103FC0001CF1070CF6B2BCEB060C3C2000FB0CFC11
:103FD00007EB0C00C9B24F423844002780F83B7011
:103FE000C8E75B1CBEE7491EB7E7F0BC704780B569
:103FF0000420DFF8F01908605FF0FF30DFF8E819FF
:1040000008605920FFF713FB01BD10B50024DFF84D
:10401000D4090068012801D101200400FFF7E7FF5F
:104020002000C0B210BD80B5DFF8C00900780006DE
:1040300022D5DFF8BC090068002801D51F2301E064
:104040004FF47843DFF8A8090068002804D5DFF8AA
:10405000A0090268524202E0DFF8940902680020D9
:1040600000909BB2DFF88C09C18FC9B2DFF88409D8
:10407000808FC0B201F0D9FBDFF870090068C0057D
:1040800022D5DFF874090068002801D51F2301E05C
:104090004FF47843DFF860090068002804D5DFF8A2
:1040A00058090268524202E0DFF84C090268002019
:1040B00000909BB2DFF83C09418FC9B2DFF83409A8
:1040C000008FC0B201F0B1FBDFF82009006810F4E6
:1040D0000060DFF81819096811F4805108430028BE
:1040E00022D0DFF818090068002801D51F2301E05D
:1040F0004FF47843DFF804090068002804D5DFF89E
:10410000FC080268524202E0DFF8F0080268002072
:1041100000909BB2DFF8DC08C18EC9B2DFF8D4088A
:10412000808EC0B201F081FB01BD00002DE9F84F87
:104130008EB0DFF8CC080068002800F03683DFF886
:10414000C0080068401EDFF8B8180860DFF8B4083F
:104150000068401CDFF8AC180860DFF8AC080068A5
:1041600001F05AFD06003000FFF722FE05903000F6
:10417000FFF77EFE0490DFF890080068002804D561
:10418000DFF884080068404202E0DFF87C0800683D
:1041900001F042FD82465046FFF779FE08905046F6
:1041A000FFF71EFE0390DFF8640800680190019895
:1041B000FFF77CFE07900198FFF72AFE069030007B
:1041C00001F03CFD0022DFF8483801F05BFD0022E1
:1041D000002301F07BFE0AD2300001F02FFD002207
:1041E000DFF8303801F04EFD04000D0009E030002A
:1041F00001F024FD0022DFF8183801F043FD04002F
:104200000D00DFF814080068DFF81018096800F0E6
:1042100021FC002101F072FE01D2002708E0DFF846
:10422000F8070068DFF8F417096800F013FC0700CE
:10423000DFF8E407006801F001FD80468946380098
:1042400001F0FCFC22002B0001F06AFE02000B00D2
:104250004046494601F036FF0022002301F036FEB9
:1042600001D200244FE0300001F0E8FC0022DFF82A
:10427000A03701F007FD0022002301F027FE0AD23B
:10428000300001F0DBFC0022DFF8883701F0FAFC97
:1042900004000D0009E0300001F0D0FC0022DFF83E
:1042A000703701F0EFFC04000D00DFF86C070068C8
:1042B000DFF86817096800F0CDFB002101F01EFE51
:1042C00001D2002708E0DFF850070068DFF84C173C
:1042D000096800F0BFFB0700DFF83C07006801F049
:1042E000ADFC80468946380001F0A8FC22002B0076
:1042F00001F016FE02000B004046494601F0E2FEC6
:1043000001F052FF04002000DFF80017096800F0F8
:10431000A1FB81464846FFF7D8FD80464846FFF797
:104320008FFD0290DFF8AC060568DFF8A406076889
:10433000DFF8B8060078000740F1BD80DFF8E4043C
:104340000068310001F064FF8346DFF8DC04016897
:10435000049801F05DFF594600F0BCFB8346DFF88E
:104360002C060168059801F053FF594600F0B2FB96
:104370000090DFF8AC060068514601F049FFDFF815
:10438000A41600F0A7FB8346DFF89C06016803989B
:1043900001F03EFF594600F09DFB009901F038FF07
:1043A000DFF8801601F0A0FF0100280000F052FBAA
:1043B0000500DFF83806006880055CD5DFF84806A0
:1043C0000068002801D51F2301E04FF47843DFF88F
:1043D00038060068002804D5DFF82C06026852422F
:1043E00002E0DFF824060268002000909BB2DFF8AC
:1043F0000406C188C9B2DFF8FC058088C0B201F0AC
:1044000014FA2800DFF8CC15096800F023FB00211E
:1044100001F074FD02D25FF01F0B01E04FF4784B06
:104420002800DFF8B015096800F014FB002101F046
:1044300065FD09D2DFF89C050068290000F00AFB41
:1044400000F0BAFB020008E02800DFF888150968D0
:1044500000F000FB00F0B0FB0200002000905B4683
:104460009BB2DFF890054189C9B2DFF88805008961
:10447000C0B201F0DAF9DFF8B4050068290001F0F4
:104480003DFD01D2280002E0DFF8A0050068DFF85A
:10449000A015096801F032FD0AD2DFF89005006826
:1044A000290001F02BFD06D3DFF88005056802E046
:1044B000DFF87C050568DFF83405007880063BD519
:1044C000280000F079FB01F08DFF01F0A5FB05004D
:1044D000DFF818050068000526D52800002101F046
:1044E0000DFD02D25FF01F0B01E04FF4784B280066
:1044F000002101F003FD05D2280090F0004000F0FB
:104500005BFB02E0280000F057FB002100915B46B6
:104510009BB20200DFF8DC04C189C9B2DFF8D40421
:104520008089C0B201F081F9280000F045FB02004B
:104530000021022000F0FAFCDFF8B0040078C00689
:1045400040F1F6804046DFF8EC1401F07BFF0DD817
:10455000404601F073FB02000B00DFF8DC04FFF7BC
:10456000F3FB0520DFF8D41408601EE190480068D2
:10457000494601F04DFE83468E480068414601F0F1
:1045800047FE594600F0A6FA8346DFF87C0301682F
:10459000029801F03DFE594600F09CFA390000F007
:1045A00099FA0700DFF844040068400555D520005B
:1045B000002101F0A3FC02D25FF01F0B01E04FF4D9
:1045C000784B2000002101F099FC05D2200090F0EA
:1045D000004000F0F1FA02E0200000F0EDFA0021C6
:1045E00000915B469BB20200DFF80804418AC9B221
:1045F000DFF80004008AC0B201F017F9DFF80C04FC
:104600000068002101F07AFC02D25FF01F0B01E08C
:104610004FF4784BDFF8F4030068002101F06EFCE2
:1046200007D2DFF8E803006890F0004000F0C4FA19
:1046300004E0DFF8D803006800F0BEFA0021009122
:104640005B469BB20200DFF8AC03C18AC9B2DFF857
:10465000A403808AC0B201F0E8F8DFF8E403006840
:10466000390001F04BFC01D2380002E0DFF8D00342
:104670000068DFF8D013096801F040FC0AD2DFF8C7
:10468000C0030068390001F039FC06D3DFF8B0033D
:10469000076802E0DFF8AC030768DFF87003006822
:1046A000DFF8801301F02AFC1DD2DFF82403006834
:1046B000390001F023FC01D2380002E0DFF81003DA
:1046C0000068DFF88013096801F018FC08D2C048C0
:1046D0000068390001F012FC05D3BD48076802E00C
:1046E000DFF8600307682800002101F007FC02D210
:1046F0005FF01F0B01E04FF4784B2800002101F020
:10470000FDFB05D2280090F0004000F055FA02E0D1
:10471000280000F051FA002100915B469BB2020094
:10472000B448418BC9B2B348008BC0B201F07DF8E8
:10473000AE480078400638D5380000F03DFA01F068
:1047400065FE01F069FA0700A8480068C00424D596
:104750003800002101F0D2FB02D25FF01F0B01E014
:104760004FF4784B3800002101F0C8FB05D2380027
:1047700090F0004000F020FA02E0380000F01CFA4F
:10478000002100915B469BB202009A48C18BC9B2DE
:104790009848808BC0B201F048F8380000F00CFA5D
:1047A00002000121012000F0C1FB0FB0BDE8F08F35
:1047B0002804FF1F2C04FF1F80B58C480078800759
:1047C00019D5FFF722FC002815D08848007840074B
:1047D00011D59D480068FFF7BCFB01F045FE8348FA
:1047E0000068C00502D57E4801F0C9F99748006805
:1047F000401C964908607D480078000603D5924821
:10480000006801F037F8FFF791FC8C480068052834
:1048100006D1002089490860FFF766FB002000E010
:10482000012002BD1404FF1F9018FF1F80B56F48C0
:104830000078400607D5012207210120FEF738FE47
:104840000020654908600020FFF712FB90F000404F
:10485000FFF70EFB0020FFF71AFB90F00040FFF778
:1048600016FB0020FFF722FB90F00040FFF71EFB35
:104870000020FFF72AFB90F00040FFF726FB002006
:1048800001F0B0F900205E49086001BD80B57E20CE
:1048900056490860FFF7CAFFFFF78EFF0028FBD1DB
:1048A00000205249086001BDD843FF1F80B542F285
:1048B0007E004E490860FFF7B9FFFFF77DFF002833
:1048C000FBD100204949086001BD0000D943FF1F0A
:1048D00080B56E2045490860FFF7A8FFFFF76CFF21
:1048E0000028FBD100204149086001BD80B560204F
:1048F0003E490860FFF79AFFFFF75EFF0028FBD1F3
:1049000000203A49086001BD9818FF1FDA43FF1FD5
:10491000DB43FF1F80B5E22034490860FFF786FFC4
:10492000FFF74AFF00282CD044480068032807D12D
:1049300000204249086046480088401C44490880DD
:104940003E480068022807D100203C4908604048E2
:104950000088401E3E4908803D480188C9B29C201D
:1049600002F04EFC002000904FF478433848028853
:104970002048418AC9B21F48008AC0B200F055FFE2
:10498000CEE700201949086001BD00001804FF1F90
:104990009C18FF1F80B540F66E3014490860FFF781
:1049A00045FFFFF709FF0028FBD100200F490860F1
:1049B00001BD0000A018FF1FA418FF1FA818FF1FAB
:1049C000AC18FF1FB018FF1FB418FF1FB818FF1F47
:1049D0004004FF1F3404FF1F1004FF1FE404FF1FE7
:1049E000B405FF1F6605FF1FA0B004408C18FF1F11
:1049F0007418FF1F4804FF1F7818FF1F7C18FF1F43
:104A0000FC30FF1F8818FF1F502EFF1FC443FF1FDD
:104A100000004440000044C02004FF1F2404FF1F86
:104A20001C04FF1F000020419418FF1F3004FF1FCB
:104A30003804FF1F0150C346E0A40000DD43FF1F00
:104A40004404FF1F3C04FF1FC843FF1F8418FF1FBF
:104A50006405FF1F90EA010F40F1428081F00041A0
:104A6000421A3CBF801A89184FF0004CC0F3C7525D
:104A7000FF2A24D0C1F3C75313B3D21AD2F11903BA
:104A800027DD4CEA01214CFA03F321EA0303D1406C
:104A9000C20D4CEA0020401834BF20EA0C004CEA5A
:104AA0005000D20553EA006373EB0C0C52EB10205C
:104AB000420012F1807F38BF7047C00DC0057047BB
:104AC000490212BF9A4200EB5120F8E7D2F11703D6
:104AD000D9D5704790EA010F7FF5C2AF81F0004150
:104AE000431A4FF000423EBF5340C01AC91800BFDE
:104AF000D3095FEAD05C13EB400F34BFB3EB410F37
:104B000040E07CEBD1530CD342EA012122D8D1EB17
:104B1000402009D3400A28BF5FEA500140EBCC5047
:104B20007047401A15D04002B0FA80F2521C9040F3
:104B3000400A4FEA3C23B3EB026384BF00EB7300EF
:104B400007E040F400001A16DB07C2F10102D04072
:104B500018437047182BFCDC31FA03F202FA03F316
:104B6000591A38BF42F00102D2EB40203CBF40004E
:104B7000ACF1010C5FEACC5CC20572F100414CEB78
:104B80005020704713EB400F0FD2C94209D0ACEB55
:104B9000D153022B03DB4902172BDDDD7047914314
:104BA000401AC042D5D10020704713EB410FD0D33B
:104BB0006FF0000070470000C0F3C7517E390EDD72
:104BC000C217D1F1200106DD000240F00040C840CC
:104BD000104450407047D04380F0004070470020A0
:104BE000704700002DE9F04104000D0016001F0081
:104BF000DFF8A803D0F800804FF47A7000FB08F8C3
:104C00005FEA5808E4B2002C0DD0E4B2012C02D0C7
:104C1000E4B2022C02D1EDB2022D04DB3821DFF820
:104C20008003FEF7F1FC40464008B04204D239212F
:104C3000DFF86C03FEF7E8FC4046000CB0FBF6F32F
:104C400000209BB219000141012901DB401CF8E75B
:104C5000B6F57A7F00D2401C4146C140B1FBF6F167
:104C600089B24A1C02FB07F2DFF838C3B2FBFCF240
:104C7000E4B2002C05D0022C00F0CE80C0F09B8066
:104C8000FBE0DFF824331B6853F08073DFF818C3B0
:104C9000CCF80030EDB2002D0BD0022D29D018D366
:104CA000042D46D035D3062D63D052D3072D70D0B6
:104CB0007FE0DFF8F8321B6853F40063DFF8ECC2E2
:104CC000CCF800304FF48063DFF8E4C2CCF8003059
:104CD00070E0DFF8D8321B6853F40063DFF8CCC211
:104CE000CCF800304FF48063DFF8C8C2CCF8003055
:104CF00060E0DFF8B8321B6853F40063DFF8ACC241
:104D0000CCF800304FF48063DFF8ACC2CCF8003050
:104D100050E0DFF898321B6853F40063DFF88CC270
:104D2000CCF800304FF48063DFF890C2CCF800304C
:104D300040E0DFF878321B6853F48053DFF86CC230
:104D4000CCF800304FF48063DFF874C2CCF8003048
:104D500030E0DFF858321B6853F48053DFF84CC260
:104D6000CCF800304FF48063DFF858C2CCF8003044
:104D700020E0DFF838321B6853F48053DFF82CC290
:104D8000CCF800304FF48063DFF83CC2CCF8003040
:104D900010E0DFF818321B6853F48053DFF80CC2C0
:104DA000CCF800304FF48063DFF820C2CCF800303C
:104DB00000E0B9E061E0DFF8F0311B6853F0007308
:104DC000DFF8E4C1CCF80030EDB2002D02D0012DA7
:104DD00010D01FE0DFF8D4311B6853F48063DFF894
:104DE000CCC1CCF800304FF44073DFF8E4C1CCF80C
:104DF000003010E0DFF8B4311B6853F48063DFF853
:104E0000ACC1CCF800304FF44073DFF8C8C1CCF827
:104E1000003000E088E030E0DFF8BC311B6853F080
:104E20008073DFF8B4C1CCF80030EDB2002D02D0B1
:104E3000012D10D01FE0DFF874311B6853F40073AC
:104E4000DFF868C1CCF800304FF44073DFF88CC154
:104E5000CCF8003010E0DFF854311B6853F40073D5
:104E6000DFF848C1CCF800304FF44073DFF870C170
:104E7000CCF8003000E057E0FFE7DFF86831E4B23B
:104E800053F82430EDB203EBC503DFF858C1E4B2A8
:104E90005CF824C0EDB20CEBC50CDCF80CC03CF0A7
:104EA000040CC3F80CC0DFF83C31E4B253F82430F2
:104EB000EDB203EBC5035FF0280CC3F80CC0C0B221
:104EC00010F0070353F02803DFF818C1E4B25CF8D0
:104ED00024C0CCF800300023DFF808C1E4B25CF84D
:104EE00024C0CCF84C3089B2DFF8F830E4B253F883
:104EF000243099600023DFF8ECC0E4B25CF824C0F1
:104F0000CCF84C30DFF8DC30E4B253F82430EDB2AA
:104F100003EBC50392B21A610023DFF8C8C0E4B204
:104F20005CF824C0CCF80430BDE8F08170B5040012
:104F30000D001600E4B2002C0ED0E4B2012C02D019
:104F4000E4B2022C02D1EDB2022D05DB4FF4B071B8
:104F5000DFF84C00FEF758FBDFF88C00864205D3E3
:104F600040F26111DFF83800FEF74EFBDFF8740005
:104F7000E4B250F824008168481C00FB06F0DFF81A
:104F80002420B0FBF2F0DFF85C20E4B252F82420D9
:104F9000EDB202EBC502106170BD0000D443FF1FEB
:104FA0001CA10000A08601003C8004403880044021
:104FB00004B0044008B004400CB0044010B00440F9
:104FC00010C0044014C0044018C004401CC0044079
:104FD00000A0044004A00440308004402890044015
:104FE0002C9004408804FF1FA186010070B50400C6
:104FF000DFF868080568DFF868080668FBF794FAC8
:10500000220092B23100280000F002F870BD0000CA
:1050100032B50400150000992000FDF78FFFBDF8A0
:105020000010BDF802004143DFF83808006850F472
:105030000070DFF83028106000BF00BF00BF00BF65
:1050400000BF00BF00BF00BFDFF81808006830F4E1
:105050000060DFF81028106000BF00BF00BF00BF75
:1050600000BF00BF00BF00BFDFF8F807006830F4E2
:105070008060DFF8F027106000BF00BF00BF00BFF6
:1050800000BF00BF00BF00BF2C20DFF8D827107082
:10509000DFF8D007006830F48070DFF8C8271060B0
:1050A00000BF00BF00BF00BF00BF00BF00BF00BF08
:1050B000DFF8B007006850F48070DFF8A8271060B0
:1050C00000BF00BF00BF00BF00BF00BF00BF00BFE8
:1050D000DFF89007006850F48060DFF888271060E0
:1050E000002088427AD2DFF87C27126852F40072DE
:1050F000DFF870371A60DFF86C27126852F400622C
:10510000DFF860371A60DFF85C27126832F48062DB
:10511000DFF850371A6000BF00BF00BF00BF00BFFC
:1051200000BF00BF00BF2A0092B2120ADFF8343776
:105130001A70DFF83027126832F48072DFF82437F3
:105140001A60DFF82027126852F48072DFF81437F3
:105150001A60DFF81027126852F48062DFF8043713
:105160001A60DFF80027126852F40072DFF8F43694
:105170001A60DFF8F026126852F40062DFF8E436B5
:105180001A60DFF8E026126832F48062DFF8D43665
:105190001A6000BF00BF00BF00BF00BF00BF00BF5C
:1051A00000BFDFF8C0261570DFF8B826126832F4A9
:1051B0008072DFF8B0361A60DFF8A826126852F461
:1051C0008072DFF8A0361A60DFF89826126852F471
:1051D0008062DFF890361A60401C82E731BD000023
:1051E000F8B504000D001600E4B2ADF80040EDB2D1
:1051F000ADF80250DFF87006076839000098FDF737
:105200009DFEDFF86006006850F40070DFF8541669
:10521000086000BF00BF00BF00BF00BF00BF00BFED
:1052200000BFDFF84006006830F40060DFF8341695
:10523000086000BF00BF00BF00BF00BF00BF00BFCD
:1052400000BFDFF82006006830F48060DFF8141635
:10525000086000BF00BF00BF00BF00BF00BF00BFAD
:1052600000BF2C20DFF8FC150870DFF8F805006897
:1052700030F48070DFF8EC15086000BF00BF00BF9D
:1052800000BF00BF00BF00BF00BFDFF8D805006847
:1052900050F48070DFF8CC15086000BF00BF00BF7D
:1052A00000BF00BF00BF00BF00BFDFF8B805006847
:1052B00050F48060DFF8AC150860DFF8A8050068DE
:1052C00050F40070DFF89C150860DFF8980500685E
:1052D00050F40060DFF88C150860DFF8880500687E
:1052E00030F48060DFF87C15086000BF00BF00BFAD
:1052F00000BF00BF00BF00BF00BF300080B2000A87
:10530000DFF860150870DFF85C05006830F4807025
:10531000DFF850150860DFF84C05006850F4807025
:10532000DFF840150860DFF83C05006850F4806045
:10533000DFF830150860DFF82C05006850F40070C5
:10534000DFF820150860DFF81C05006850F40060E5
:10535000DFF810150860DFF80C05006830F4806095
:10536000DFF80015086000BF00BF00BF00BF00BF2E
:1053700000BF00BF00BFDFF8EC040670DFF8E404F4
:10538000006830F48070DFF8DC140860DFF8D404C3
:10539000006850F48070DFF8CC140860DFF8C404B3
:1053A000006850F48060DFF8BC140860F1BD0000B4
:1053B0002DE9F1430C0015001E00DFF8B004D0F811
:1053C0000090BDF800007A2803DABDF802007228C8
:1053D00001DB002073E149460098FDF7AFFDDFF8DF
:1053E0008404006850F40070DFF87814086000BF8F
:1053F00000BF00BF00BF00BF00BF00BF00BFDFF89D
:105400006404006830F40060DFF85814086000BFDE
:1054100000BF00BF00BF00BF00BF00BF00BFDFF87C
:105420004404006830F48060DFF83814086000BF7E
:1054300000BF00BF00BF00BF00BF00BF00BF2C20E7
:10544000DFF820140870DFF81C04006830F4807066
:10545000DFF81014086000BF00BF00BF00BF00BF2E
:1054600000BF00BF00BFDFF8FC03006850F480708D
:10547000DFF8F013086000BF00BF00BF00BF00BF2F
:1054800000BF00BF00BFDFF8DC03006850F480609D
:10549000DFF8D01308600021C9B2102980F20E8114
:1054A000DFF8CC03E4B2C9B211EB04121044B0F53A
:1054B000007000780700002080465FFA88F8B8F195
:1054C000080F80F2F980380679D5DFF89803006874
:1054D00050F40070DFF88C231060DFF88803006858
:1054E00050F40060DFF87C231060DFF87803006878
:1054F00030F48060DFF86C23106000BF00BF00BF95
:1055000000BF00BF00BF00BF00BF280080B2000A7C
:10551000DFF850231070DFF84C03006830F480701F
:10552000DFF840231060DFF83C03006850F480701F
:10553000DFF830231060DFF82C03006850F480603F
:10554000DFF820231060DFF81C03006850F40070BF
:10555000DFF810231060DFF80C03006850F40060DF
:10556000DFF800231060DFF8FC02006830F4806090
:10557000DFF8F022106000BF00BF00BF00BF00BF17
:1055800000BF00BF00BFDFF8DC020570DFF8D40207
:10559000006830F48070DFF8CC221060DFF8C402BD
:1055A000006850F48070DFF8BC221060DFF8B402AD
:1055B000006850F48060DFF8AC22106078E0DFF81B
:1055C000A402006850F40070DFF898221060DFF841
:1055D0009402006850F40060DFF888221060DFF861
:1055E0008402006830F48060DFF87822106000BF29
:1055F00000BF00BF00BF00BF00BF00BF00BF300042
:1056000080B2000ADFF85C221070DFF858020068F0
:1056100030F48070DFF84C221060DFF84802006838
:1056200050F48070DFF83C221060DFF83802006828
:1056300050F48060DFF82C221060DFF82802006848
:1056400050F40070DFF81C221060DFF818020068C8
:1056500050F40060DFF80C221060DFF808020068E8
:1056600030F48060DFF8FC21106000BF00BF00BF95
:1056700000BF00BF00BF00BF00BFDFF8E801067039
:10568000DFF8E001006830F48070DFF8D8211060A6
:10569000DFF8D001006850F48070DFF8C821106096
:1056A000DFF8C001006850F48060DFF8B8211060B6
:1056B0007F0018F1010800E7491CEDE60120BDE874
:1056C000F28371B581B00C0015001E00207800280F
:1056D0001CD0BDF804007A2802DB0120ADF80400DC
:1056E000BDF80600722802DB0120ADF80600330089
:1056F0009BB22A0092B221780198FFF759FEBDF8BB
:1057000004000830ADF80400641CDFE773BD2DE928
:10571000FC4105000E0017009846089CEDB2ADF85C
:105720000050F6B2ADF8026023009BB2424692B23E
:1057300039000098FFF7C5FFBDE8F3812DE9F1437B
:1057400082B00E001700984635000024BDF80A000C
:10575000ADF80600002E19D143469BB23A0092B232
:1057600030210298FFF724FEBDF808000830ADF89C
:1057700008001020ADF802002020ADF800004246DD
:1057800092B200990298FFF743FC4CE0ADB2002DB5
:1057900005D0ADB20A2095FBF0F5641CF6E7E4B243
:1057A000052C01DB05200400E4B2A146E4B2002C84
:1057B0001BD0BDF80800E4B2A4B210EBC400083856
:1057C000ADF80400641E0A2143469BB23A0092B22F
:1057D000B6FBF1F001FB10613031C9B20198FFF75F
:1057E000E7FD0A20B6FBF0F6E0E71FFA89F9B9F108
:1057F000050F18D0D9F1050080B2C000ADF8000047
:10580000BDF808001FFA89F95FEAC90111FA80F0B2
:10581000ADF808001020ADF80200424692B200999F
:105820000298FFF7F5FBBDE8F7832DE9FC41050081
:105830000E0017009846089CEDB2ADF80050F6B285
:10584000ADF8026023009BB2424692B23900009844
:10585000FFF774FFBDE8F3810000000030AB0000EB
:1058600034AB000080F00F4038AB00003CAB0000D0
:10587000908900002DE9F0470600DFF888030768EB
:10588000DFF88403D0F80080B14641463800FDF7C8
:1058900055FBDFF86C03006850F40070DFF860130C
:1058A000086000BF00BF00BF00BF00BF00BF00BF57
:1058B00000BFDFF84C03006830F40060DFF84013ED
:1058C000086000BF00BF00BF00BF00BF00BF00BF37
:1058D00000BFDFF82C03006830F48060DFF820138D
:1058E000086000BF00BF00BF00BF00BF00BF00BF17
:1058F00000BF2C20C2490870C148006830F4807095
:10590000BF49086000BF00BF00BF00BF00BF00BFAD
:1059100000BF00BFBA48006850F48070B849086002
:1059200000BF00BF00BF00BF00BF00BF00BF00BF7F
:10593000B348006850F48060B14908603B21C9B2A7
:1059400000293CD000200500EDB20A2D35DA99F887
:105950000000040019F10109082082465046B0F108
:10596000010AC0B2002826D0012212FA0AF2200051
:10597000C0B210420FD0A548C9B2502202FB01F2BA
:105980001044EDB2EA00D21D5FFA8AFAB2EB0A02C5
:1059900001238354E2E79D48C9B2502202FB01F281
:1059A0001044EDB2EA00D21D5FFA8AFAB2EB0A02A5
:1059B00000238354D2E76D1CC6E7491EBFE73B2096
:1059C000C0B2002800F0D98000210D00EDB2502DAA
:1059D00080F2D1808D49C0B2502202FB00F2114406
:1059E000EDB2495D01295ED18549096851F4007124
:1059F000834A11608249096851F40061804A11604C
:105A00007F49096831F480617D4A116000BF00BFA1
:105A100000BF00BF00BF00BF00BF00BF0021784A29
:105A200011707749096831F48071754A11607449C1
:105A3000096851F48071724A11607149096851F422
:105A400080616F4A11606E49096851F400716C4AB7
:105A500011606B49096851F40061694A1160684935
:105A6000096831F48061664A116000BF00BF00BF61
:105A700000BF00BF00BF00BF00BF0021604A11701F
:105A80005F49096831F480715D4A11605C490968B9
:105A900051F480715A4A11605949096851F4806182
:105AA000574A11605DE05649096851F40071544A43
:105AB00011605349096851F40061514A116050491D
:105AC000096831F480614E4A116000BF00BF00BF19
:105AD00000BF00BF00BF00BF00BFFF21484A1170D8
:105AE0004749096831F48071454A116044490968A1
:105AF00051F48071424A11604149096851F4806152
:105B00003F4A11603E49096851F400713C4A1160F6
:105B10003B49096851F40061394A11603849096804
:105B200031F48061364A116000BF00BF00BF00BF82
:105B300000BF00BF00BF00BFFF21314A11703049D4
:105B4000096831F480712E4A11602D49096851F4B9
:105B500080712B4A11602A49096851F48061284AF2
:105B6000116000BF00BF00BF00BF00BF00BF00BF8B
:105B700000BF6D1C2AE7401E22E7BDE8F087F8B59C
:105B8000040000263B2E2CDA00254F2D27DA4FF695
:105B9000FF703C2101FB05F12144895D012906D0FC
:105BA0000FD3032908D004D3042907D009E0002724
:105BB00009E04FF4784706E01F2704E04FF4FC6744
:105BC00001E04FF6FF773A0092B230000100C9B20F
:105BD00015F13000C0B2FFF703FB6D1CD5E7761C52
:105BE000D0E7F1BD70B504000948056809480668AA
:105BF000220092B231002800FFF70AFA70BD0000BF
:105C000080F00F4040AB000044AB00000431FF1FA8
:105C100048AB00004CAB0000C2175040801AB0FAED
:105C200080F10AD08840D1F19D01D20742EAC151EA
:105C3000020672F1004241EB10207047C0F3C751D9
:105C400081B1FF2906D0C110400721F0E04101F1E8
:105C50006051704741020CBF40F4E0016FF0004119
:105C60000020704700F0004100020AD0B0FA80FC2A
:105C700000FA0CF001F16051A1EB0C5101EBD021C5
:105C800040057047F0B540F2FF7581EA030C0CF057
:105C9000004C15EA11541DBF15EA1357AC42AF4230
:105CA000E5E0BC41C1F31301C3F31303801A99412A
:105CB00043F4801304D2641E4000494180185941C6
:105CC000C90241EA5051B1FBF3F603FB1611A2FBE6
:105CD0000675D7EBC020A94102D2761E8018594123
:105CE000C90241EA5051B1FBF3FE03FB1E11A2FBB6
